S00C0000756172742E737265635C
S11300000C9434000C9451000C9451000C94510045
S11300100C9451000C9451000C9451000C94510018
S11300200C9451000C9451000C9451000C94510008
S11300300C9451000C943B010C9451000C9451000D
S11300400C9451000C9451000C948F020C94BD023A
S11300500C9451000C9450010C9451000C945100D8
S11300600C9451000C94510011241FBECFEFD8E022
S1130070DEBFCDBF11E0A0E0B1E0E6EBF6E002C0E8
S113008005900D92A435B107D9F721E0A4E5B1E0BC
S113009001C01D92A93DB207E1F70E94EA000C9449
S11300A059030C940000299A000029980895CF93CD
S11300B0C82F662311F0289A01C02898549A559A9B
S11300C0569A579A5F985E985D985C98CC230CF486
S11300D05F9AC6FD5E9AC5FD5D9AC4FD5C9A0E9456
S11300E053005F985E985D985C98C3FD5F9AC2FD6B
S11300F05E9AC1FD5D9AC0FD5C9A0E9453005C9AB1
S11301005D9A5E9A5F9A8AEF8A95F1F7CF91089586
S113011060E00E9457000895611104C080580E9455
S11301208800089580540E948800089581E00E9408
S11301308800089561E00E9457000895CF93DF93EB
S1130140EC012196FC018081882329F00E949A0009
S113015089918111FBCFDF91CF910895CF93C82F5F
S1130160209A559A219A549A559A569A579A8FE9F1
S11301709FE00197F1F700C000005D9A5C9A0E942D
S1130180530081EE94E00197F1F700C000000E9453
S1130190530095E19A95F1F700000E94530085E120
S11301A08A95F1F700005C980E94530095E19A95B6
S11301B0F1F7000088E20E94880088E00E9488002D
S11301C00E94960086E00E9488008C2F0E9488007E
S11301D0CF9108958CE00E94AE0060E081E00E941F
S11301E08C0080E091E00E949E0061E083E00E9428
S11301F08C0087E091E00E949E0060E088E00E940D
S11302008C008CE091E00E949E0060E08DE00E94F2
S11302108C008EE091E00E949E0061E088E00E94E4
S11302208C0080E191E00E949E00ECE7F0E0808188
S1130230806480838081807F8083EAE7F0E080812E
S113024080688083808188608083808187608083E8
S1130250E1E8F0E080818B7F80838081836080830C
S1130260EFE6F0E080818160808387E690E00E9481
S1130270E7027894FFCF1F920F920FB60F921124CA
S11302808F93EF93FF93EAE7F0E0808180648083AB
S1130290FF91EF918F910F900FBE0F901F901895C3
S11302A01F920F920FB60F921124EF92FF920F93A9
S11302B01F932F933F934F935F936F937F938F93EA
S11302C09F93AF93BF93EF93FF93CF93DF93CDB7F8
S11302D0DEB7A497DEBFCDBF80E390E39A83898322
S11302E09C838B830091780010917900E02EF12E8D
S11302F04AE0BE016F5F7F4FC8010E94240360E0A3
S113030088E00E948C008CE291E00E949E0060E0F4
S113031088E00E948C00CE0101960E949E000C3B56
S113032082E0180760F482E191E00E941503CE0197
S113033001960E94150387E291E00E94150340E1B3
S1130340BE016F5F7F4F8E2D9F2D0E94240360E0BE
S11303508DE00E948C008DE291E00E949E0060E09E
S11303608DE00E948C00CE0101960E949E0061E007
S113037088E00E948C008AE291E00E949E0061E085
S113038088E00E948C0081E391E00E949E00C801F5
S113039080569109099780F461E088E00E948C00FE
S11303A08AE291E00E949E0061E088E00E948C0055
S11303B087E391E00E949E00C801815F910909973B
S11303C080F461E088E00E948C008AE291E00E945F
S11303D09E0061E088E00E948C008AE391E00E9424
S11303E09E00C8018C5891400E9780F461E088E02B
S11303F00E948C008AE291E00E949E0061E088E005
S11304000E948C008FE391E00E949E00C8018658F0
S11304109240099780F461E088E00E948C008AE2AF
S113042091E00E949E0061E088E00E948C0084E4D8
S113043091E00E949E00073F83E0180780F061E08E
S113044088E00E948C008AE291E00E949E0061E0B4
S113045088E00E948C008BE491E00E949E000115CC
S11304601105D9F1DE011596E0E0F0E001C0FC01D0
S1130470C801817099278D939D9316950795CF0197
S113048001960115110599F71E161F060CF5EE0FBE
S1130490FF1FEC0FFD1F37969E01295F3F4F10E0B1
S11304A092918291019709F41F5FE217F307C1F754
S11304B061E08FE00E948C0010FF05C080E591E0B0
S11304C00E949E000FC082E591E00E949E000AC037
S11304D061E08FE00E948C00F6CF61E08FE00E9423
S11304E08C00F1CFA4960FB6F894DEBF0FBECDBF3B
S11304F0DF91CF91FF91EF91BF91AF919F918F9138
S11305007F916F915F914F913F912F911F910F9127
S1130510FF90EF900F900FBE0F901F9018951F92B1
S11305200F920FB60F9211242F938F939F93EF93F3
S1130530FF938091C0002091C6008C71E091560118
S1130540EF5FEF7390915501E91739F0E09356018D
S1130550F0E0E75AFE4F208301C082E090915401FD
S1130560892B80935401FF91EF919F918F912F914B
S11305700F900FBE0F901F9018951F920F920FB6F9
S11305800F9211248F939F93EF93FF9390915801AF
S113059080915701981769F0E0915701EF5FEF736D
S11305A0E0935701F0E0E756FE4F80818093C60048
S11305B005C0E1ECF0E080818F7D8083FF91EF91B5
S11305C09F918F910F900FBE0F901F9018951092CE
S11305D05801109257011092560110925501992317
S11305E01CF422E02093C00090789093C50080937F
S11305F0C40088E98093C10086E08093C200089516
S1130600209158012F5F2F73909157012917E1F31F
S1130610E22FF0E0E756FE4F808320935801E1EC8F
S1130620F0E08081806280830895CF93DF93EC01B2
S11306308881882331F021960E94000389918111D9
S1130640FBCFDF91CF910895BB274A3031F4992332
S113065022F4BDE2909581959F4F0C943003BB2703
S1130660FB015527AA27880F991FAA1FA41710F06A
S1130670A41B83955051B9F7A05DAA3308F0A95D76
S1130680A193009779F7B111B1931192CB010C9416
S11306904903DC01FC01672F71917723E1F732975D
S11306A004C07C916D9370836291AE17BF07C8F349
S10906B00895F894FFCF49
S11306B676616C75653A006B65793A006100620093
S11306C66300427574746F6E20776173207072656F
S11306D6737365643A20000D0A0020202020202030
S11306E600526967687400557000446F776E004C59
S11306F66566740053656C656374004E6F6E6500C1
S1070706310030008A
S9030000FC
