S01700004763634170706C69636174696F6E312E737265635B
S11300000C9434000C9446000C9446000C94460066
S11300100C9446000C9446000C9446000C94460044
S11300200C9446000C9446000C9446000C94460034
S11300300C9446000C9446000C9446000C94460024
S11300400C9446000C9446000C9446000C94460014
S11300500C9446000C9446000C9446000C94460004
S11300600C9446000C94460011241FBECFEFD8E038
S1130070DEBFCDBF21E0A0E0B1E001C01D92A13000
S1130080B207E1F70E9489000C94BF000C940000B1
S1130090FC01408121E030E002C0220F331F6A9549
S11300A0E2F7242B20830895FC01808121E030E0D5
S11300B002C0220F331F6A95E2F7922F909589238D
S11300C0808380818181282B21830895FC014081D4
S11300D021E030E002C0220F331F6A95E2F7242B9F
S11300E020830895FC01408121E030E002C0220F0A
S11300F0331F6A95E2F724272083089589B190E09D
S113010002C0959587956A95E2F721E08227817070
S1130110089565E084E290E00E94480065E085E28D
S113012090E00E94660060E087E290E00E94480050
S113013060E088E290E00E94660060E08AE290E07D
S11301400E9454002FEF89E698E1215080409040AE
S1130150E1F700C0000060E08BE290E00E947E00C6
S113016080930001813071F765E085E290E00E94A0
S1130170720060E088E290E00E947200E3CFF8949D
S1050180FFCFAB
S9030000FC
