S00B00006C63642E73726563E6
S11300000C9434000C9451000C9451000C94510045
S11300100C9451000C9451000C9451000C94510018
S11300200C9451000C9441010C9451000C94510017
S11300300C9451000C9451000C9451000C945100F8
S11300400C9445020C9451000C9451000C945100F2
S11300500C9451000C9451000C9451000C945100D8
S11300600C9451000C94510011241FBECFEFD8E022
S1130070DEBFCDBF11E0A0E0B1E0E0E9F5E002C0F1
S113008005900D92AC34B107D9F721E0ACE4B1E0AE
S113009001C01D92A435B207E1F70E94FA000C9446
S11300A0C6020C940000299A85E08A95F1F70000B5
S11300B029980895CF93C82F662311F0289A01C078
S11300C02898549A559A569A579A5F985E985D98CC
S11300D05C98CC230CF45F9AC6FD5E9AC5FD5D9ACC
S11300E0C4FD5C9A0E9453005F985E985D985C988A
S11300F0C3FD5F9AC2FD5E9AC1FD5D9AC0FD5C9A24
S11301000E9453005C9A5D9A5E9A5F9A87EB9BE02B
S11301100197F1F700C00000CF91089560E00E94BC
S11301205A00089561E00E945A000895611104C0C4
S113013080580E948E00089580540E948E00089575
S113014081E00E948E00089561E00E945A000895A3
S1130150CF93DF93EC012196FC018081882329F061
S11301600E94A40089918111FBCFDF91CF91089562
S1130170CF93C82F209A559A219A549A559A569AF1
S1130180579A8FEF99EF0197F1F700C000005D9A3D
S11301905C9A0E9453008FE19EE40197F1F700C03E
S11301A000000E9453008FEF90E00197F1F700C028
S11301B000000E9453008FEF90E00197F1F700C018
S11301C000005C980E9453008FEF90E00197F1F7D4
S11301D000C0000088E20E948E0088E00E948E0029
S11301E00E94A00086E00E948E008C2F0E948E0048
S11301F0CF9108958CE00E94B80080E40E948E00A4
S1130200C0E0D1E000E411E089910E949200C0179F
S1130210D107D1F780E80E948E0060E081E00E945F
S1130220960080E491E00E94A80060E080E00E94D3
S1130230960086E00E94A40060E088E00E94960098
S113024087E00E94A40061E08BE00E94960083E6B0
S11302500E94A400E1EBF0E0808187608083E0E706
S1130260F0E080818160808385B58D7F85BD85B513
S1130270856085BDEEE6F0E08081816080837894BE
S1130280FFCF1F920F920FB60F9211242F933F931B
S11302904F935F936F937F938F939F93AF93BF938A
S11302A0EF93FF93CF93DF9300D0CDB7DEB780E316
S11302B090E39A838983809153018F5F863018F489
S11302C080935301CDC010925301809152018F5FEE
S11302D08A3018F48093520197C010925201809191
S11302E051018F5F809351018A30A8F460E084E06B
S11302F00E949600809151014AE0BE016F5F7F4FDA
S113030090E00E94910280E30E94A400CE01019635
S11303100E94A80011C060E084E00E9496008091D1
S113032051014AE0BE016F5F7F4F90E00E9491024D
S1130330CE0101960E94A800809151018C3308F4EB
S113034063C01092510160E084E00E9496008091A5
S113035051014AE0BE016F5F7F4F90E00E9491021D
S1130360CE0101960E94A800809150018F5F809376
S113037050018A30A8F460E081E00E94960080E396
S11303800E94A400809150014AE0BE016F5F7F4F3C
S113039090E00E949102CE0101960E94A80011C033
S11303A060E081E00E949600809150014AE0BE0125
S11303B06F5F7F4F90E00E949102CE0101960E94F0
S11303C0A800809150018C3350F01092500160E0ED
S11303D081E00E94960088E491E00E94A80060E019
S11303E08CE00E94960080E20E94A40060E08DE010
S11303F00E94960080E20E94A40060E08EE00E94C9
S1130400960080E20E94A40080915101889FC0015F
S1130410112490934F0180934E0160E08BE00E9481
S113042096004AE0BE016F5F7F4F80914E0190912C
S11304304F010E949102CE0101960E94A80060E043
S113044087E00E949600809152014AE0BE016F5FEE
S11304507F4F90E00E949102CE0101960E94A80075
S11304600F900F90DF91CF91FF91EF91BF91AF91DA
S11304709F918F917F916F915F914F913F912F91B8
S11304800F900FBE0F901F9018951F920F920FB6EA
S11304900F9211242F933F934F935F936F937F9306
S11304A08F939F93AF93BF93CF93EF93FF938091D9
S11304B04D018F5F863018F480934D0116C0109261
S11304C04D0180914C018F5F8A3018F480934C0168
S11304D00CC010924C0161E081E00E949600CAE0D9
S11304E080E20E94A400C150D9F780914C0161E0E0
S11304F08F5F0E94960080914D010E94A400FF919D
S1130500EF91CF91BF91AF919F918F917F916F9117
S11305105F914F913F912F910F900FBE0F901F90BD
S11305201895BB274A3031F4992322F4BDE2909503
S113053081959F4F0C949D02BB27FB015527AA2749
S1130540880F991FAA1FA41710F0A41B839550515C
S1130550B9F7A05DAA3308F0A95DA193009779F7D4
S1130560B111B1931192CB010C94B602DC01FC01E0
S1130570672F71917723E1F7329704C07C916D93D3
S113058070836291AE17BF07C8F30895F894FFCF44
S113059000000000000000001010101010101010D7
S11305A018181818181818181C1C1C1C1C1C1C1CA7
S11305B01E1E1E1E1E1E1E1E1F1F1F1F1F1F1F1F4F
S11305C00F08080808080F000F01010101010F00BE
S10F05D030303A30302E30003030000063
S9030000FC
