S01700004763634170706C69636174696F6E312E737265635B
S11300000C9434000C943E000C943E000C943E007E
S11300100C943E000C943E000C943E000C943E0064
S11300200C943E000C943E000C943E000C943E0054
S11300300C943E000C943E000C943E000C943E0044
S11300400C943E000C943E000C943E000C943E0034
S11300500C943E000C943E000C943E000C943E0024
S11300600C943E000C943E0011241FBECFEFD8E048
S1130070DEBFCDBF0E9440000C94D3000C9400005E
S1130080259A239A229A249A389A2D982B982A985A
S11300902C9840985098589A51E030E220E198E02A
S11300A044E048990DC088B1852788B96FEF79E697
S11300B088E1615070408040E1F700C00000409842
S11300C048990DC085B1832785B96FEF79E688E13A
S11300D0615070408040E1F700C000002D984899BD
S11300E00DC085B1822785B96FEF79E688E161504B
S11300F070408040E1F700C000002C9848990DC082
S113010085B1892785B96FEF79E688E16150704040
S11301108040E1F700C000002B9848990DC085B1DC
S1130120842785B96FEF79E688E16150704080409B
S1130130E1F700C000002A9848990DC085B18927CD
S113014085B96FEF79E688E1615070408040E1F74E
S113015000C000002B9848990DC085B1822785B94D
S11301606FEF79E688E1615070408040E1F700C0AC
S113017000002C9848990DC085B1832785B96FEF8D
S113018079E688E1615070408040E1F700C00000EA
S11301902D986FEF70E782E0615070408040E1F786
S10D01A000C000007ECFF894FFCFEA
S9030000FC
