S01700004763634170706C69636174696F6E312E737265635B
S11300000C945A000C9464000C9464000C946400E6
S11300100C9464000C9464000C9464000C946400CC
S11300200C9464000C9464000C9464000C946400BC
S11300300C9464000C9464000C9464000C946400AC
S11300400C9464000C9464000C9464000C9464009C
S11300500C9464000C9464000C9464000C9464008C
S11300600C9464000C9464000C9464000C9464007C
S11300700C9464000C9464000C9464000C9464006C
S11300800C9464000C9464000C9464000C9464005C
S11300900C9464000C9464000C9464000C9464004C
S11300A00C9464000C9464000C9464000C9464003C
S11300B00C94640011241FBECFEFD8E0DEBFCDBF87
S11300C00E94D1000C94E8000C9400002D9A2FEFAC
S11300D083ED90E3215080409040E1F700C00000A0
S11300E02D9808952D9A2FEF8BE792E921508040A7
S11300F09040E1F700C000002D9808952D982FEF4F
S11301008BE792E9215080409040E1F700C0000065
S113011008950E9472002FEF83ED90E321508040F8
S11301209040E1F700C000000E9466002FEF83EDCD
S113013090E3215080409040E1F700C000000E940D
S1130140660008950E9466002FEF83ED90E321502E
S113015080409040E1F700C000000E9466002FEF4D
S113016083ED90E3215080409040E1F700C000000F
S11301700E9472002FEF83ED90E321508040904065
S1130180E1F700C000000E9472002FEF83ED90E3BE
S1130190215080409040E1F700C000000E947200AE
S11301A00895259A2D980E9489000E947E000E943D
S11301B066000E947E000E94A2002AEA34ED8CE1CF
S11301C091E02150304080409040D9F70000EBCFBF
S10701D0F894FFCFCD
S9030000FC
