S0180000446F6F725F4C6F636B5F53797374656D2E73726563AC
S11300000C9434000C9451000C9451000C94510045
S11300100C9451000C9451000C9451000C94510018
S11300200C9451000C9451000C9451000C94510008
S11300300C9451000C94E2030C9451000C94510064
S11300400C94E2020C9451000C94CA040C94F8042D
S11300500C9451000C9451000C9451000C945100D8
S11300600C9451000C94510011241FBECFEFD8E022
S1130070DEBFCDBF12E0A0E0B1E0ECE2FBE002C0E5
S113008005900D92AC33B107D9F722E0ACE3B2E0AE
S113009001C01D92A33DB207E1F70E9491020C94A6
S11300A094050C940000FC01408121E030E002C082
S11300B0220F331F6A95E2F7242B20830895FC0155
S11300C0908121E030E002C0220F331F6A95E2F7ED
S11300D02095292320830895FC01408121E030E00C
S11300E002C0220F331F6A95E2F7242B2083089560
S11300F0FC01808190E002C0959587956A95E2F7AE
S113010081700895CF92DF92EF92FF920F931F9325
S1130110CF93DF930F2EF0E0EF2EF1E0FF2EF02DC2
S1130120D0E0CC24C394D12C60E08BE290E00E9418
S11301305F0061E08BE290E00E945F0062E08BE28E
S113014090E00E945F006D2F8BE290E00E946C00B3
S11301508701C2E06C2F83E290E00E947800813036
S1130160A1F4E0914002F0914102E153FD4FD80126
S11301708C918083D0924302C09242026C2F83E21E
S113018090E00E9478008130C9F3CF5F0D5F1F4F6C
S1130190C63001F7DF5FBFEFEB1AFB0AD33021F65D
S11301A0DF91CF911F910F91FF90EF90DF90CF904F
S11301B00895AFECB2E0E4E2F1E04CE251E08D915D
S11301C02191319190E08217930751F4E417F507D8
S11301D0B1F781E090E0909349028093480208953A
S11301E010924902109248020895AFECB2E0E4E1A3
S11301F0F1E04CE151E08D912191319190E0821731
S1130200930751F4E417F507B1F781E090E0909378
S113021047028093460208951092470210924602C4
S11302200895AFECB2E0ECE0F1E044E151E08D91EF
S11302302191319190E08217930751F4E417F50767
S1130240B1F781E090E090934502809344020895D1
S113025010924502109244020895109241021092A5
S11302604002109243021092420285E090E0909383
S113027023018093220189E090E0909321018093EF
S1130280200190931F0180931E0110923F0210924F
S11302903E0210923D0210923C0260E080E00E9417
S11302A02D028CE291E00E943F0261E080E00E9416
S11302B02D028CE291E00E943F0260E081E00E9406
S11302C02D0281E491E00E943F0261E08FE00E94F0
S11302D02D028EE391E00E943F0261E080912201B1
S11302E00E942D028BE391E00E943F0263E088E2CA
S11302F090E00E945F00089560E081E00E942D027A
S113030082E391E00E943F0261E085E00E942D02B9
S113031087E391E00E943F0260E081E00E942D02A9
S113032080E591E00E943F0263E088E290E00E9451
S11303306C0010921D0110921C0161E08FE00E947C
S11303402D028FE391E00E943F02089560E081E076
S11303500E942D0282E391E00E943F0261E085E069
S11303600E942D028AE391E00E943F0260E080E057
S11303700E942D028FE591E00E943F0261E080E03F
S11303800E942D028091480290914902019729F41C
S113039087E691E00E943F0215C080914602909149
S11303A04702019729F482E791E00E943F020AC0C4
S11303B08091440290914502019721F480E891E0F4
S11303C00E943F0265E088E290E00E946C0081E0B8
S11303D090E090933D0280933C020895299A85E031
S11303E08A95F1F7000029980895CF93C82F6623C2
S11303F011F0289A01C02898549A559A569A579AF7
S11304005F985E985D985C98CC230CF45F9AC6FD67
S11304105E9AC5FD5D9AC4FD5C9A0E94EE015F98E8
S11304205E985D985C98C3FD5F9AC2FD5E9AC1FDBB
S11304305D9AC0FD5C9A0E94EE015C9A5D9A5E9A98
S11304405F9A87EB9BE00197F1F700C00000CF9122
S1130450089560E00E94F5010895611104C0805878
S11304600E942902089580540E942902089581E07F
S11304700E942902089561E00E94F5010895CF9336
S1130480DF93EC012196FC018081882329F00E94EE
S11304903B0289918111FBCFDF91CF910895CF93D6
S11304A0C82F209A559A219A549A559A569A579A2F
S11304B08FEF99EF0197F1F700C000005D9A5C9A05
S11304C00E94EE018FE19EE40197F1F700C0000065
S11304D00E94EE018FEF90E00197F1F700C0000059
S11304E00E94EE018FEF90E00197F1F700C0000049
S11304F05C980E94EE018FEF90E00197F1F700C045
S1130500000088E20E94290288E00E9429020E94D9
S1130510370286E00E9429028C2F0E942902CF9183
S113052008958CE00E944F0260E081E00E942D0259
S113053081E491E00E943F0261E0809122010E94E7
S11305402D0263E087E290E00E94530063E088E2BA
S113055090E00E945F0065E087E290E00E94530013
S113056065E088E290E00E945F0060E08AE290E04B
S11305700E94530061E08AE290E00E94530062E02E
S11305808AE290E00E94530085B58C7F85BD85B5D5
S1130590846085BDEEE6F0E0808181608083E1E8DF
S11305A0F0E080818C7F8083808184608083EFE6AB
S11305B0F0E080818160808387E690E00E942205DC
S11305C07894FFCF1F920F920FB60F9211242F939E
S11305D03F934F935F936F937F938F939F93AF93C7
S11305E0BF93EF93FF93CF93DF9300D000D0CDB7A9
S11305F0DEB70E94820080913E0290913F028536D0
S113060091050CF4C3C080E390E39A8389839C83AF
S11306108B838091400290914102843091050CF0CB
S113062065C020911C0130911D012330310509F072
S1130630A8C0FC01E153FD4F80814AE0BE016F5F19
S11306407F4F90E00E945F058091420290914302A7
S1130650892B09F496C061E0809122010E942D0249
S1130660E0914002F0914102E153FD4F80818A32D2
S113067091F0833281F08AE20E943B028AE891E0A1
S11306800E945005CE0101960E9450058CE991E02C
S11306900E94500514C08AE20E943B028AE891E05D
S11306A00E945005E0914002F0914102E153FD4F58
S11306B080810E943B058CE991E00E9450051092D4
S11306C043021092420280912201909123010196EB
S11306D090932301809322018091400290914102E2
S11306E0019690934102809340024BC0049709F015
S11306F048C080911C0190911D01039709F041C0ED
S113070080912001909121010997D9F50E94D90087
S11307100E94F5000E9411018091480290914902C3
S11307200097F9F48091460290914702892BD9F4FD
S11307308091440290914502892BD9F48FE991E08C
S11307400E9450058CE991E00E9450058CEB91E0E9
S11307500E9450058CE991E00E9450050E947C01A2
S113076010C0019761F08091460290914702019771
S113077031F08091440290914502019711F40E9456
S1130780A60110923F0210923E0205C0019690937A
S11307903F0280933E020F900F900F900F90DF91D5
S11307A0CF91FF91EF91BF91AF919F918F917F91E5
S11307B06F915F914F913F912F910F900FBE0F90CA
S11307C01F9018951F920F920FB60F9211242F931A
S11307D03F934F935F936F937F938F939F93AF93C5
S11307E0BF93EF93FF9380913C0290913D02019758
S11307F079F580911C0190911D01039709F0B1C016
S11308008091200190912101099781F48DEC91E070
S11308100E9450058CE991E00E9450058CEE91E015
S11308200E9450058CE991E00E94500561E08FE040
S11308300E942D0280912001805D0E943B028091E4
S1130840200190912101019790932101809320012F
S113085080912001909121010196D9F580911C018C
S113086090911D01039709F05BC088E092E00E941B
S113087050058CE991E00E9450058BE192E00E94C2
S113088050058CE991E00E94500565E088E290E013
S11308900E945F0060E080E00E942D0280E391E00E
S11308A00E943F0261E080E00E942D0280E391E01B
S11308B00E943F0260E081E00E942D0280E392E00A
S11308C00E943F0282E090E090931D0180931C01FE
S11308D027C080914002909141028430910504F533
S11308E020911C0130911D0123303105C9F41816E3
S11308F0190684F561E08FE00E942D0280911E01AB
S1130900805D0E943B0280911E0190911F0101971E
S113091090931F0180931E01019611F40E942D01F2
S113092080911C0190911D018330910514F58F3F36
S11309302FEF920749F483E090E090931D01809398
S11309401C010E942D0115C0019790931D018093F5
S11309501C010FC080911E0190911F01019649F462
S1130960DDCF8091200190912101019609F0B1CF52
S1130970D7CFFF91EF91BF91AF919F918F917F91CD
S11309806F915F914F913F912F910F900FBE0F90F8
S11309901F9018951F920F920FB60F9211242F9348
S11309A08F939F93EF93FF938091C0002091C60093
S11309B08C71E0914C02EF5FEF7390914B02E91759
S11309C039F0E0934C02F0E0E15BFD4F208301C07D
S11309D082E090914A02892B80934A02FF91EF9121
S11309E09F918F912F910F900FBE0F901F9018958C
S11309F01F920F920FB60F9211248F939F93EF9330
S1130A00FF9390914E0280914D02981769F0E09106
S1130A104D02EF5FEF73E0934D02F0E0E157FD4FBD
S1130A2080818093C60005C0E1ECF0E080818F7D79
S1130A308083FF91EF919F918F910F900FBE0F9044
S1130A401F90189510924E0210924D0210924C0273
S1130A5010924B0299231CF422E02093C00090785A
S1130A609093C5008093C40088E98093C10086E018
S1130A708093C200089520914E022F5F2F739091AE
S1130A804D022917E1F3E22FF0E0E157FD4F808397
S1130A9020934E02E1ECF0E080818062808308952F
S1130AA0CF93DF93EC018881882331F021960E9453
S1130AB03B0589918111FBCFDF91CF910895BB272D
S1130AC04A3031F4992322F4BDE2909581959F4FE9
S1130AD00C946B05BB27FB015527AA27880F991F88
S1130AE0AA1FA41710F0A41B83955051B9F7A05D59
S1130AF0AA3308F0A95DA193009779F7B111B193D6
S1130B001192CB010C948405DC01FC01672F7191D7
S1130B107723E1F7329704C07C916D9370836291DF
S10F0B20AE17BF07C8F30895F894FFCF88
S1130B2C0102030405060708092A00230100020038
S1130B3C0300040004000300040005000300090082
S1130B4C09000500020003000400050020202020F9
S1130B5C2020202020202020202020202020202085
S1130B6C00456E7465722050617373776F72640004
S1130B7C57726F6E672050617373776F726400578E
S1130B8C656C636F6D65004D722E2054686F6D61DA
S1130B9C73004D722E20416C2D5761747461720078
S1130BAC4D722E205368616C61004B657920707214
S1130BBC6573736564207761733A20000D0A0059DC
S1130BCC6F7520656E746572656420612077726F31
S1130BDC6E672070617373776F726400506C65611B
S1130BEC73652074727920616761696E00596F7541
S1130BFC20656E7465726564206120436F72726542
S1130C0C63742070617373776F726400446F6F72D6
S1130C1C206973206F70656E20666F7220392073A3
S1130C2C65636F6E64732100446F6F722069732067
S1130C3C6E6F7720636C6F73656400456E746572B8
S1130C4C2070617373776F726420616761696E00E1
S10F0C5C446F6F7220436C6F736564007A
S9030000FC
