S0180000446F6F725F4C6F636B5F53797374656D2E73726563AC
S11300000C9434000C9451000C9451000C94510045
S11300100C9451000C9451000C9451000C94510018
S11300200C9451000C9451000C9451000C94510008
S11300300C9451000C9407040C9451000C9451003E
S11300400C9407030C9451000C94F5040C942305B0
S11300500C9451000C9451000C9451000C945100D8
S11300600C9451000C94510011241FBECFEFD8E022
S1130070DEBFCDBF12E0A0E0B1E0E2E8FBE002C0E9
S113008005900D92AC33B107D9F722E0ACE3B2E0AE
S113009001C01D92A33DB207E1F70E94A2020C9495
S11300A0BF050C940000FC01408121E030E002C057
S11300B0220F331F6A95E2F7242B20830895FC0155
S11300C0808121E030E002C0220F331F6A95E2F7FD
S11300D02095822380838081818128232183089530
S11300E0FC01908121E030E002C0220F331F6A95A9
S11300F0E2F72095292320830895FC01408121E023
S113010030E002C0220F331F6A95E2F7242B2083CC
S11301100895FC01808190E002C0959587956A95C9
S1130120E2F781700895CF92DF92EF92FF920F93DE
S11301301F93CF93DF930F2EF0E0EF2EF1E0FF2E0D
S1130140F02DD0E0CC24C394D12C60E08BE290E07D
S11301500E94700061E08BE290E00E94700062E017
S11301608BE290E00E9470006D2F8BE290E00E9481
S11301707D008701C2E06C2F83E290E00E94890039
S11301808130A1F4E0914002F0914102E153FD4F2E
S1130190D8018C918083D0924302C09242026C2F8A
S11301A083E290E00E9489008130C9F3CF5F0D5F44
S11301B01F4FC63001F7DF5FBFEFEB1AFB0AD330E6
S11301C021F6DF91CF911F910F91FF90EF90DF9077
S11301D0CF900895AFECB2E0E4E2F1E04CE251E0FC
S11301E08D912191319190E08217930751F4E41796
S11301F0F507B1F781E090E09093490280934802BB
S1130200089510924902109248020895AFECB2E0AA
S1130210E4E1F1E04CE151E08D912191319190E0E4
S11302208217930751F4E417F507B1F781E090E0E2
S113023090934702809346020895109247021092C9
S113024046020895AFECB2E0ECE0F1E044E151E0A5
S11302508D912191319190E08217930751F4E41725
S1130260F507B1F781E090E0909345028093440252
S1130270089510924502109244020895109241028A
S113028010924002109243021092420285E090E0E4
S1130290909323018093220189E090E090932101BF
S11302A08093200190931F0180931E0110923F02BE
S11302B010923E0210923D0210923C0260E080E0F7
S11302C00E943E028CE291E00E94500261E080E0D4
S11302D00E943E028CE291E00E94500260E081E0C4
S11302E00E943E0281E491E00E94500261E08FE0AE
S11302F00E943E028EE391E00E94500261E08091F0
S113030022010E943E028BE391E00E94500263E0CE
S113031088E290E00E947000089560E081E00E940D
S11303203E0282E391E00E94500261E085E00E9477
S11303303E0287E391E00E94500260E081E00E9467
S11303403E0280E591E00E94500263E088E290E082
S11303500E947D0010921D0110921C0161E08FE04B
S11303600E943E028FE391E00E945002089560E0F3
S113037081E00E943E0282E391E00E94500261E02B
S113038085E00E943E028AE391E00E94500260E010
S113039080E00E943E028FE591E00E94500261E0FD
S11303A080E00E943E0280914802909149020197A8
S11303B029F487E691E00E94500215C0809146021C
S11303C090914702019729F482E791E00E9450023C
S11303D00AC08091440290914502019721F480E87B
S11303E091E00E94500265E088E290E00E947D0066
S11303F081E090E090933D0280933C020895299A15
S113040085E08A95F1F7000029980895CF93C82FC5
S1130410662311F0289A01C02898549A559A569A3E
S1130420579A5F985E985D985C98CC230CF45F9A19
S1130430C6FD5E9AC5FD5D9AC4FD5C9A0E94FF01EB
S11304405F985E985D985C98C3FD5F9AC2FD5E9A62
S1130450C1FD5D9AC0FD5C9A0E94FF015C9A5D9AA1
S11304605E9A5F9A87EB9BE00197F1F700C000006A
S1130470CF91089560E00E9406020895611104C0BE
S113048080580E943A02089580540E943A020895C6
S113049081E00E943A02089561E00E9406020895F4
S11304A0CF93DF93EC012196FC018081882329F00E
S11304B00E944C0289918111FBCFDF91CF91089565
S11304C0CF93C82F209A559A219A549A559A569A9E
S11304D0579A8FEF99EF0197F1F700C000005D9AEA
S11304E05C9A0E94FF018FE19EE40197F1F700C03E
S11304F000000E94FF018FEF90E00197F1F700C028
S113050000000E94FF018FEF90E00197F1F700C017
S113051000005C980E94FF018FEF90E00197F1F7D3
S113052000C0000088E20E943A0288E00E943A0279
S11305300E94480286E00E943A028C2F0E943A02EE
S1130540CF9108958CE00E94600260E081E00E94F7
S11305503E0281E491E00E94500261E08091220118
S11305600E943E0263E087E290E00E94530063E051
S113057088E290E00E94700065E087E290E00E94CB
S1130580530065E088E290E00E94700060E08AE237
S113059090E00E94530061E08AE290E00E945300E0
S11305A062E08AE290E00E94530062E084E290E01C
S11305B00E945F0063E084E290E00E945F0064E0D8
S11305C084E290E00E945F0065E084E290E00E9493
S11305D05F0085B58C7F85BD85B5846085BDEEE6FD
S11305E0F0E0808181608083E1E8F0E080818C7FAD
S11305F08083808184608083EFE6F0E08081816085
S1130600808387E690E00E944D057894FFCF1F9287
S11306100F920FB60F9211242F933F934F935F9332
S11306206F937F938F939F93AF93BF93EF93FF93B6
S1130630CF93DF9300D000D0CDB7DEB70E949300F4
S113064080913E0290913F02853691050CF4C3C01F
S113065080E390E39A8389839C838B838091400217
S113066090914102843091050CF065C020911C01E9
S113067030911D012330310509F0A8C0FC01E1537C
S1130680FD4F80814AE0BE016F5F7F4F90E00E9482
S11306908A058091420290914302892B09F496C005
S11306A061E0809122010E943E02E0914002F091BB
S11306B04102E153FD4F80818A3291F0833281F00F
S11306C08AE20E944C028AE891E00E947B05CE01F6
S11306D001960E947B058CE991E00E947B0514C081
S11306E08AE20E944C028AE891E00E947B05E09134
S11306F04002F0914102E153FD4F80810E94660562
S11307008CE991E00E947B05109243021092420210
S1130710809122019091230101969093230180936B
S113072022018091400290914102019690934102EE
S1130730809340024BC0049709F048C080911C018B
S113074090911D01039709F041C08091200190917F
S113075021010997D9F50E94EA000E9406010E942E
S1130760220180914802909149020097F9F4809106
S1130770460290914702892BD9F4809144029091CA
S11307804502892BD9F48FE991E00E947B058CE91D
S113079091E00E947B058CEB91E00E947B058CE943
S11307A091E00E947B050E948D0110C0019761F0C9
S11307B08091460290914702019731F08091440262
S11307C090914502019711F40E94B70110923F02E3
S11307D010923E0205C0019690933F0280933E0220
S11307E00F900F900F900F90DF91CF91FF91EF91A9
S11307F0BF91AF919F918F917F916F915F914F9135
S11308003F912F910F900FBE0F901F9018951F923C
S11308100F920FB60F9211242F933F934F935F9330
S11308206F937F938F939F93AF93BF93EF93FF93B4
S113083080912001909121010196D9F580911C01AC
S113084090911D01039709F0B7C08DEC91E00E94CF
S11308507B058CE991E00E947B0580EE91E00E948B
S11308607B058CE991E00E947B0565E088E290E0DD
S11308700E94700060E080E00E943E0280E391E00C
S11308800E94500261E080E00E943E0280E391E019
S11308900E94500260E081E00E943E0285EF91E0F8
S11308A00E94500282E090E090931D0180931C010D
S11308B083C080913C0290913D02019779F580912B
S11308C01C0190911D01039709F058C080912001EB
S11308D090912101099781F481E092E00E947B05C7
S11308E08CE991E00E947B0580E292E00E947B0506
S11308F08CE991E00E947B0561E08FE00E943E025A
S113090080912001805D0E944C0280912001909191
S1130910210101979093210180932001809140024D
S113092090914102843091054CF520911C01309145
S11309301D012330310511F520911E0130911F0155
S11309402F3F3F4FA9F50E943E01809140029091B4
S113095041021816190694F461E08FE00E943E02E9
S113096080911E01805D0E944C0280911E01909135
S11309701F01019790931F0180931E0180911C0118
S113098090911D0183309105FCF48F3F2FEF920766
S113099049F483E090E090931D0180931C010E9430
S11309A03E0112C0019790931D0180931C010CC05D
S11309B0181619068CF208C080913C0290913D02F1
S11309C0019709F0ABCFDACFFF91EF91BF91AF91CF
S11309D09F918F917F916F915F914F913F912F9153
S11309E00F900FBE0F901F9018951F920F920FB685
S11309F00F9211242F938F939F93EF93FF938091E2
S1130A00C0002091C6008C71E0914C02EF5FEF733F
S1130A1090914B02E91739F0E0934C02F0E0E15B6E
S1130A20FD4F208301C082E090914A02892B80937C
S1130A304A02FF91EF919F918F912F910F900FBEDA
S1130A400F901F9018951F920F920FB60F921124BA
S1130A508F939F93EF93FF9390914E0280914D0259
S1130A60981769F0E0914D02EF5FEF73E0934D0248
S1130A70F0E0E157FD4F80818093C60005C0E1ECB2
S1130A80F0E080818F7D8083FF91EF919F918F9122
S1130A900F900FBE0F901F90189510924E02109257
S1130AA04D0210924C0210924B0299231CF422E046
S1130AB02093C00090789093C5008093C40088E987
S1130AC08093C10086E08093C200089520914E0275
S1130AD02F5F2F7390914D022917E1F3E22FF0E07D
S1130AE0E157FD4F808320934E02E1ECF0E08081DA
S1130AF0806280830895CF93DF93EC0188818823FB
S1130B0031F021960E94660589918111FBCFDF9116
S1130B10CF910895BB274A3031F4992322F4BDE2E2
S1130B20909581959F4F0C949605BB27FB01552703
S1130B30AA27880F991FAA1FA41710F0A41B839536
S1130B405051B9F7A05DAA3308F0A95DA1930097AD
S1130B5079F7B111B1931192CB010C94AF05DC017B
S1130B60FC01672F71917723E1F7329704C07C91E0
S1130B706D9370836291AE17BF07C8F30895F8941C
S1050B80FFCFA1
S1130B820102030405060708092A002301000200E2
S1130B92030004000400030004000500030009002C
S1130BA209000500020003000400050020202020A3
S1130BB2202020202020202020202020202020202F
S1130BC200456E7465722050617373776F726400AE
S1130BD257726F6E672050617373776F7264005738
S1130BE2656C636F6D65004D722E2054686F6D6184
S1130BF273004D722E20416C2D5761747461720022
S1130C024D722E205368616C61004B6579207072BD
S1130C126573736564207761733A20000D0A005985
S1130C226F7520656E746572656420612077726FDA
S1130C326E672070617373776F726400506C6561C4
S1130C4273652074727920616761696E00446F6F05
S1130C5272206973206E6F7720636C6F7365640012
S1130C62456E7465722070617373776F726420616C
S1130C726761696E00446F6F7220436C6F736564C1
S1130C8200596F7520656E74657265642061204336
S1130C926F72726563742070617373776F7264002C
S1130CA2446F6F72206973206F70656E20666F7275
S10F0CB22039207365636F6E64732100A9
S9030000FC
